{
  "contractName": "KISS",
  "abi": [
    {
      "inputs": [],
      "payable": false,
      "stateMutability": "nonpayable",
      "type": "constructor",
      "signature": "constructor"
    },
    {
      "constant": false,
      "inputs": [
        {
          "name": "reciever",
          "type": "address"
        },
        {
          "name": "value",
          "type": "uint256"
        }
      ],
      "name": "transfer",
      "outputs": [],
      "payable": false,
      "stateMutability": "nonpayable",
      "type": "function",
      "signature": "0xa9059cbb"
    },
    {
      "constant": true,
      "inputs": [
        {
          "name": "addr",
          "type": "address"
        }
      ],
      "name": "getBalance",
      "outputs": [
        {
          "name": "",
          "type": "uint256"
        }
      ],
      "payable": false,
      "stateMutability": "view",
      "type": "function",
      "signature": "0xf8b2cb4f"
    }
  ],
  "bytecode": "0x608060405234801561001057600080fd5b506103e86000803373ffffffffffffffffffffffffffffffffffffffff1673ffffffffffffffffffffffffffffffffffffffff168152602001908152602001600020819055506102ac806100656000396000f3fe60806040526004361061004c576000357c0100000000000000000000000000000000000000000000000000000000900463ffffffff168063a9059cbb14610051578063f8b2cb4f146100ac575b600080fd5b34801561005d57600080fd5b506100aa6004803603604081101561007457600080fd5b81019080803573ffffffffffffffffffffffffffffffffffffffff16906020019092919080359060200190929190505050610111565b005b3480156100b857600080fd5b506100fb600480360360208110156100cf57600080fd5b81019080803573ffffffffffffffffffffffffffffffffffffffff169060200190929190505050610238565b6040518082815260200191505060405180910390f35b6000816000803373ffffffffffffffffffffffffffffffffffffffff1673ffffffffffffffffffffffffffffffffffffffff16815260200190815260200160002054031015151561016157600080fd5b3373ffffffffffffffffffffffffffffffffffffffff168273ffffffffffffffffffffffffffffffffffffffff161415151561019c57600080fd5b806000803373ffffffffffffffffffffffffffffffffffffffff1673ffffffffffffffffffffffffffffffffffffffff16815260200190815260200160002060008282540392505081905550806000808473ffffffffffffffffffffffffffffffffffffffff1673ffffffffffffffffffffffffffffffffffffffff168152602001908152602001600020600082825401925050819055505050565b60008060008373ffffffffffffffffffffffffffffffffffffffff1673ffffffffffffffffffffffffffffffffffffffff16815260200190815260200160002054905091905056fea165627a7a72305820c035aeb870e95cebdc9acbaf82107e99723f28726d0461b826fd7426e9da25f00029",
  "source": "pragma solidity >=0.4.25 ;\n\n\n\ncontract KISS {\n\n\tmapping (address => uint) balances;\n\t//mapping (uint => uint) counter;\n\t//uint token;\n\n\tconstructor()public{\n\t\tbalances[msg.sender] = 1000;\n\t}\n\n/*\tfunction DoHelp(address receiver, uint Hours, uint service) public {\n\t\ttoken = Hours;\n\t\tbalances[receiver] += token;\n\t\tcounter[service] += 1;\n\t}*/\n\n\t//function getServiceCounter (uint _service) public view returns(uint){\n\t//\treturn counter[_service];\n\t//}\n\n    function transfer(address reciever, uint value)public {\n        require( balances[msg.sender]-value >= 0);\n        require( reciever != msg.sender );\n        balances[msg.sender] -= value;\n        balances[reciever] += value;\n    }\n\n\tfunction getBalance(address addr) public view returns(uint) {\n\t\treturn balances[addr];\n\t}\n}\n",
  "sourcePath": "/Users/luohan/Desktop/dev/contracts/Kiss.sol",
  "compiler": {
    "name": "solc",
    "version": "0.5.0+commit.1d4f565a.Emscripten.clang"
  },
  "schemaVersion": "3.0.2",
  "updatedAt": "2019-02-14T13:14:47.531Z",
  "devdoc": {
    "methods": {}
  },
  "userdoc": {
    "methods": {}
  }
}